S01700004763634170706C69636174696F6E312E737265635B
S11300000C942A000C943F000C943F000C943F0085
S11300100C943F000C943F000C943F000C943F0060
S11300200C943F000C943F000C943F000C943F0050
S11300300C943F000C943F000C943F000C943F0040
S11300400C943F000C943F000C943F000C943F0030
S11300500C943F0011241FBECFE5D8E0DEBFCDBF16
S113006010E0A0E6B0E0EAE7F2E002C005900D92ED
S1130070AC36B107D9F70E9441000C943B010C94B3
S113008000000E9446000E940601FDCF8FEF84BB52
S113009015BA81BB12BA9FE39ABB90EC9BBB87BB9A
S11300A018BA0895CF92DF92EF92FF920F931F93A5
S11300B0CF93DF9300D000D0CDB7DEB7A82FEEE109
S11300C0F0E070E00F2EF7EFEF2EF02D822F90E08E
S11300D09C012E593F4F3C832B830F2EFBEFFF2EA9
S11300E0F02D50E04E595F4F0DEF262F30E02E5982
S11300F03F4F1EEFCA2ED12CC6018E599F4F9A83B3
S113010089836894CC24C3F837C0D11005C012BBCE
S1130110A981BA817C9132C0B1E0DB1204C002BB78
S1130120D9017C912BC0B2E0DB1204C0F2BADA012F
S11301307C9124C0B3E0DB1221C0E2BAAB81BC8164
S11301407C911CC077232CF4A99AA89AAA9A15BA70
S113015003C0A89AAA9A15BA770F615099F78FEC41
S113016097E00197F1F700C00000D39494E0D9120E
S1130170CCCF3197309721F0D12CC7CF6C2DE2CF63
S11301800F900F900F900F90DF91CF911F910F91CF
S1130190FF90EF90DF90CF900895809161008336B7
S11301A018F48F5F809361000895CF9923C08FE383
S11301B09CE90197F1F700C00000CF9926C0CE99C1
S11301C00FC08FE39CE90197F1F700C00000CE99BE
S11301D007C083E6809361008BE38093600007C0CF
S11301E020E040E060E080E00E945200E8CFCF9B36
S11301F0FECF0895CE9909C08FE39CE90197F1F7EA
S113020000C00000CE9B0E94CD0008950E94D5003E
S113021080916000409161006DEC469F212D112476
S1130220269526952695922F990F392F330F330F44
S1130230930F491B869F612D1124669566956695DB
S1130240962F990F392F330F330F930F891B0E9469
S1130250520080916000811108C08091610081503A
S1130260809361008BE380936000809160008150F3
S10D0270809360000895F894FFCF16
S10F027A3B633F065B4F666D7D07FF6F22
S9030000FC
